:020000040800F2
:100000000000012089160008D9160008D91600083A
:10001000D9160008D9160008D916000800000000FB
:10002000000000000000000000000000D9160008D9
:10003000D916000800000000D9160008D9160008DB
:1000400000000000D9160008D9160008D9160008CB
:10005000D9160008D9160008D9160008D9160008C4
:10006000D9160008D9160008D916000800000000AB
:100070000000000000000000000000000000000080
:100080000000000000000000D91600080000000079
:10009000000000000000000000000000D916000869
:1000A000D9160008D9160008D9160008D916000874
:1000B00009150008D916000800000000D91600082C
:1000C000D9160008D9160008D9160008D916000854
:1000D000D916000800000000000000000000000029
:1000E000D9160008D9160008D9160008000000002B
:1000F0000000000000000000000000000000000000
:1001000000000000D916000800000000D916000801
:1001100000000000000000000000000000000000DF
:1001200000000000000000000000000000000000CF
:1001300000000000000000000000000000000000BF
:10014000000000000000000000000000D9160008B8
:10015000000000000000000000000000000000009F
:10016000D9160008D91600080000000000000000A1
:10017000000000000000000000000000000000007F
:1001800000000000D9160008000000000000000078
:04019000D916000874
:1001980010B5054C237833B9044B13B10448AFF3B9
:1001A80000800123237010BD3404002000000000EB
:1001B800FC18000808B5034B1BB103490348AFF30B
:1001C800008008BD0000000038040020FC1800086A
:1001D80081F0004102E000BF83F0004330B54FEAF0
:1001E80041044FEA430594EA050F08BF90EA020F5D
:1001F8001FBF54EA000C55EA020C7FEA645C7FEAF0
:10020800655C00F0E2804FEA5454D4EB5555B8BF12
:100218006D420CDD2C4480EA020281EA030382EA83
:10022800000083EA010180EA020281EA0303362D15
:1002380088BF30BD11F0004F4FEA01314FF4801CE8
:100248004CEA113102D0404261EB410113F0004FFA
:100258004FEA03334CEA133302D0524263EB4303B1
:1002680094EA050F00F0A780A4F10104D5F1200E4F
:100278000DDB02FA0EFC22FA05F2801841F10001AA
:1002880003FA0EF2801843FA05F359410EE0A5F17E
:1002980020050EF1200E012A03FA0EFC28BF4CF0AF
:1002A800020C43FA05F3C01851EBE37101F0004565
:1002B80007D54FF0000EDCF1000C7EEB00006EEB72
:1002C8000101B1F5801F1BD3B1F5001F0CD34908FC
:1002D8005FEA30004FEA3C0C04F101044FEA445253
:1002E80012F5800F80F09A80BCF1004F08BF5FEADA
:1002F800500C50F1000041EB045141EA050130BDBA
:100308005FEA4C0C404141EB010111F4801FA4F15C
:100318000104E9D191F0000F04BF01460020B1FAB1
:1003280081F308BF2033A3F10B03B3F120020CDAE9
:100338000C3208DD02F1140CC2F10C0201FA0CF0C7
:1003480021FA02F10CE002F11402D8BFC2F1200C2C
:1003580001FA02F120FA0CFCDCBF41EA0C019040E2
:10036800E41AA2BF01EB0451294330BD6FEA04042B
:100378001F3C1CDA0C340EDC04F11404C4F1200216
:1003880020FA04F001FA02F340EA030021FA04F328
:1003980045EA030130BDC4F10C04C4F1200220FA7F
:1003A80002F001FA04F340EA0300294630BD21FABD
:1003B80004F0294630BD94F0000F83F4801306BF83
:1003C80081F480110134013D4EE77FEA645C18BF77
:1003D8007FEA655C29D094EA050F08BF90EA020F0E
:1003E80005D054EA000C04BF1946104630BD91EA06
:1003F800030F1EBF0021002030BD5FEA545C05D109
:100408004000494128BF41F0004130BD14F5800447
:100418003CBF01F5801130BD01F0004545F0FE41BB
:1004280041F470014FF0000030BD7FEA645C1ABFF0
:10043800194610467FEA655C1CBF0B46024650EA27
:10044800013406BF52EA033591EA030F41F4002153
:1004580030BD00BF90F0000F04BF0021704730B5D9
:100468004FF4806404F132044FF000054FF00001AE
:1004780050E700BF90F0000F04BF0021704730B56F
:100488004FF4806404F1320410F0004548BF404244
:100498004FF000013EE700BF42004FEAE2014FEA99
:1004A80031014FEA02701FBF12F07F4393F07F4F74
:1004B80081F06051704732F07F4208BF704793F077
:1004C8007F4F04BF41F40021704730B54FF460748A
:1004D80001F0004521F000411CE700BF50EA01028D
:1004E80008BF704730B54FF000050AE050EA010236
:1004F80008BF704730B511F0004502D5404261EBA6
:1005080041014FF4806404F132045FEA915C3FF4E6
:10051800D8AE4FF003025FEADC0C18BF03325FEA83
:10052800DC0C18BF033202EBDC02C2F1200300FA34
:1005380003FC20FA02F001FA03FE40EA0E0021FA59
:1005480002F11444BDE600BF70B54FF0FF0C4CF447
:10055800E06C1CEA11541DBF1CEA135594EA0C0FF9
:1005680095EA0C0F00F0DEF82C4481EA030621EA34
:100578004C5123EA4C5350EA013518BF52EA03356F
:1005880041F4801143F4801338D0A0FB02CE4FF021
:100598000005E1FB02E506F00042E0FB03E54FF051
:1005A8000006E1FB03569CF0000F18BF4EF0010E49
:1005B800A4F1FF04B6F5007F64F5407404D25FEA45
:1005C8004E0E6D4146EB060642EAC62141EA5551F8
:1005D8004FEAC52040EA5E504FEACE2EB4F1FD0C3A
:1005E80088BFBCF5E06F1ED8BEF1004F08BF5FEAB8
:1005F800500E50F1000041EB045170BD06F000466A
:1006080046EA010140EA020081EA0301B4EB5C0416
:10061800C2BFD4EB0C0541EA045170BD41F480110E
:100628004FF0000E013C00F3AB8014F1360FDEBF33
:10063800002001F0004170BDC4F10004203C35DA0F
:100648000C341BDC04F11404C4F1200500FA05F392
:1006580020FA04F001FA05F240EA020001F0004233
:1006680021F0004110EBD37021FA04F642EB0601A9
:100678005EEA430E08BF20EAD37070BDC4F10C04D3
:10068800C4F1200500FA04F320FA05F001FA04F297
:1006980040EA020001F0004110EBD37041F1000183
:1006A8005EEA430E08BF20EAD37070BDC4F120058E
:1006B80000FA05F24EEA020E20FA04F301FA05F2F6
:1006C80043EA020321FA04F001F0004121FA04F29E
:1006D80020EA020000EBD3705EEA430E08BF20EA6E
:1006E800D37070BD94F0000F0FD101F000464000A8
:1006F80041EB010111F4801F08BF013CF7D041EA2A
:10070800060195F0000F18BF704703F0004652002D
:1007180043EB030313F4801F08BF013DF7D043EAFE
:100728000603704794EA0C0F0CEA135518BF95EAB4
:100738000C0F0CD050EA410618BF52EA4306D1D13B
:1007480081EA030101F000414FF0000070BD50EA5A
:10075800410606BF1046194652EA430619D094EAE4
:100768000C0F02D150EA013613D195EA0C0F05D1CE
:1007780052EA03361CBF104619460AD181EA030122
:1007880001F0004141F0FE4141F470014FF00000DA
:1007980070BD41F0FE4141F4780170BD70B54FF075
:1007A800FF0C4CF4E06C1CEA11541DBF1CEA1355F5
:1007B80094EA0C0F95EA0C0F00F0A7F8A4EB0504D7
:1007C80081EA030E52EA03354FEA013100F08880CE
:1007D8004FEA03334FF0805545EA131343EA126397
:1007E8004FEA022245EA111545EA10654FEA00264C
:1007F8000EF000419D4208BF964244F1FD0404F505
:10080800407402D25B084FEA3202B61A65EB030560
:100818005B084FEA32024FF480104FF4002CB6EB1D
:10082800020E75EB030E22BFB61A754640EA0C009D
:100838005B084FEA3202B6EB020E75EB030E22BFDD
:10084800B61A754640EA5C005B084FEA3202B6EB1E
:10085800020E75EB030E22BFB61A754640EA9C00DD
:100868005B084FEA3202B6EB020E75EB030E22BFAD
:10087800B61A754640EADC0055EA060E18D04FEA6B
:10088800051545EA16754FEA06164FEAC30343EA0B
:1008980052734FEAC2025FEA1C1CC0D111F4801FD8
:1008A8000BD141EA00014FF000004FF0004CB6E7D1
:1008B80011F4801F04BF01430020B4F1FD0C88BF70
:1008C800BCF5E06F3FF6AFAEB5EB030C04BFB6EB7B
:1008D800020C5FEA500C50F1000041EB045170BD6E
:1008E8000EF0004E4EEA113114EB5C04C2BFD4EB9B
:1008F8000C0541EA045170BD41F480114FF0000E1F
:10090800013C90E645EA060E8DE60CEA135594EA9A
:100918000C0F08BF95EA0C0F3FF43BAF94EA0C0F9D
:100928000AD150EA01347FF434AF95EA0C0F7FF412
:1009380025AF104619462CE795EA0C0F06D152EA66
:1009480003353FF4FDAE1046194622E750EA41064A
:1009580018BF52EA43067FF4C5AE50EA41047FF45B
:100968000DAF52EA43057FF4EBAE12E74FEA4102BE
:1009780012F5001215D211D56FF47873B3EB6252E9
:1009880012D94FEAC12343F0004343EA505311F010
:10099800004F23FA02F018BF404270474FF00000A2
:1009A800704750EA013005D111F0004008BF6FF0E0
:1009B800004070474FF00000704700BF4FEA410207
:1009C800B2F1E04324BFB3F5001CDCF1FE5C0DD9A5
:1009D80001F0004C4FEAC0024CEA5070B2F1004FEF
:1009E80040EB830008BF20F00100704711F0804FF2
:1009F80021D113F13872BCBF01F00040704741F4B7
:100A080080114FEA5252C2F11802C2F1200C10FABA
:100A18000CF320FA02F018BF40F001004FEAC1239E
:100A28004FEAD32303FA0CFC40EA0C0023FA02F342
:100A38004FEA4303CCE77FEA625307D150EA013318
:100A48001EBF4FF0FE4040F44000704701F00040E8
:100A580040F0FE4040F40000704700BF80B483B00F
:100A680000AF7860084611461A460346FB700B46ED
:100A7800BB7013467B70474B1A6B7B78012101FAD8
:100A880003F3444913430B63BB78012B16D17B68EE
:100A98001A68FB785B00012101FA03F31A437B68AB
:100AA8001A607B681A68FB785B000133012101FA40
:100AB80003F3DB431A407B681A6065E0BB78002BC0
:100AC8004AD17B681A68FB785B00012101FA03F3BD
:100AD800DB431A407B681A607B681A68FB785B0006
:100AE8000133012101FA03F3DB431A407B681A60E2
:100AF8003B7C002B16D07B68DA68FB785B00012111
:100B080001FA03F31A437B68DA607B68DA68FB78DA
:100B18005B000133012101FA03F3DB431A407B68D0
:100B2800DA6031E03B7C002B2ED17B68DA68FB78F9
:100B38005B00012101FA03F3DB431A407B68DA60AA
:100B48007B68DA68FB785B000133012101FA03F363
:100B58001A437B68DA6017E0BB78022B14D17B68F4
:100B68001A68FB785B00012101FA03F31A437B68DA
:100B78001A607B681A68FB785B000133012101FA6F
:100B880003F31A437B681A6000BF0C37BD465DF853
:100B9800047B70470038024080B483B000AF7860AF
:100BA8000B46FB701346BB707B681A68FB785B00CA
:100BB800012101FA03F31340002B18D0BB78002B56
:100BC80009D07B685A69FB78012101FA03F31A43BB
:100BD8007B685A6109E07B685A69FB78012101FA50
:100BE80003F3DB431A407B685A61002300E00123CA
:100BF80018460C37BD465DF8047B704780B584B055
:100C080002AF002300930023012202211848FFF7B6
:100C180025FF002300930023012203211448FFF736
:100C28001DFF002300930023012204211048FFF731
:100C380015FF00237B600BE07B68D9B2002300938B
:100C4800012301220B48FFF709FF7B6801337B6012
:100C58007B68072BF0DD382000F00EF80C2000F040
:100C68000BF8012000F008F800BF0837BD4680BD2A
:100C7800000002400004024080B588B000AF03467F
:100C8800FB71002203213348FFF786FF002202216F
:100C98003048FFF781FF0023FB6102E0FB69013365
:100CA800FB61FB6941F287329342F7DD0023BB61A8
:100CB80002E0BB690133BB61BB6941F287329342F1
:100CC800F7DD012204212348FFF766FF00237B613B
:100CD80002E07B6901337B617B6941F28732934291
:100CE800F7DD00233B6112E03B69D9B201223B6981
:100CF80002FA03F35AB297F9073013405BB2DBB23A
:100D08001A461548FFF748FF3B6901333B613B69C9
:100D1800072BE9DD0023FB6002E0FB680133FB6081
:100D2800FB6841F287329342F7DD0022042109482B
:100D3800FFF732FF0023BB6002E0BB680133BB60F2
:100D4800BB6841F287329342F7DD00BF2037BD46CA
:100D580080BD00BF000002400004024080B588B09A
:100D680000AF0346FB71002203212D48FFF714FF53
:100D7800012202212A48FFF70FFF0023FB6102E04E
:100D8800FB690133FB61FB6941F287329342F7DD6E
:100D9800012204212248FFF7FFFE0023BB6102E085
:100DA800BB690133BB61BB6941F287329342F7DD0E
:100DB80000237B6112E07B69D9B201227B6902FAC8
:100DC80003F35AB297F9073013405BB2DBB21A4605
:100DD8001448FFF7E1FE7B6901337B617B69072BD0
:100DE800E9DD00233B6102E03B6901333B613B697C
:100DF80041F287329342F7DD002204210848FFF7C9
:100E0800CBFE0023FB6002E0FB680133FB60FB685C
:100E180041F287329342F7DD00BF2037BD4680BDDF
:100E2800000002400004024080B584B000AF786042
:100E38000023FB7309E0FB7B7A6813441B78184690
:100E4800FFF78CFFFB7B0133FB73FB7B7A68134452
:100E58001B78002BEFD100BF1037BD4680BD80B591
:100E680086B000AF78607B6807F108010A2218464F
:100E780000F070FC07F108031846FFF7D5FF00BF24
:100E88001837BD4680BD80B500AF0120FFF7F4FEDE
:100E980000BF80BD00000000B0B58AB000AF87ED8C
:100EA800010A7B68FB61404BBB6197ED067AD7ED81
:100EB800077A77EE677AC7ED057A4FF000033B6152
:100EC8007869FFF7E9FA34A3D3E90023FFF73CFB7D
:100ED80003460C4618462146FFF770FD0346FB60A3
:100EE80097ED047AD7ED057A77EE277AC7ED047A7D
:100EF800D7ED037AB2EE047A67EE877A17EE900A96
:100F0800FFF7CAFA04460D463869FFF7C5FA24A365
:100F1800D3E90023FFF718FB02460B461046194693
:100F28004FF00002214BFFF70FFB02460B4620460D
:100F38002946FFF753F903460C4618462146FFF7A2
:100F480015FD03467B627B6ABA2B02DDBA237B62FE
:100F580004E07B6A002B01DA00237B62144A7B6A77
:100F68005363D7ED017AFCEEE77A17EE900AFFF7A4
:100F780076FF00233B6202E03B6A01333B623B6A37
:100F8800B3F5FA7FF8DBFFF77EFF00BF2837BD46D1
:100F9800B0BD00BFAFF300809A9999999999B93F6C
:100FA8007B14AE47E17A843F0000F0410000244002
:100FB800000C004080B400AF344B1B6B334A43F045
:100FC80001031363314B1B6C304A43F0080313646D
:100FD8002F4B1B682E4A23F0010313602C4B1B6810
:100FE8002B4A43F002031360294B1B6A284A43F03B
:100FF80002031362274B1B8C9BB2264A43F0010362
:101008009BB21384234B1B889BB2224A43F0800374
:101018009BB213801F4B1B8B9BB21E4A23F01003FD
:101028009BB213831B4B1B8B9BB21A4A43F02003C2
:101038009BB21383174B1B8B9BB2164A43F040039A
:101048009BB21383134B1B8B9BB2124A43F00803CA
:101058009BB213830F4B40F23F621A850D4BFF2260
:10106800DA620C4B9B8A9BB20A4A43F001039BB29B
:101078009382084B1B889BB2064A43F001039BB23C
:10108800138000BFBD465DF8047B704700380240FE
:1010980000000240000C004080B483B000AF03465B
:1010A800FB71FB7903F01F02074997F907305B09C9
:1010B800012000FA02F241F8232000BF0C37BD4698
:1010C8005DF8047B704700BF00E100E080B400AF2A
:1010D800104B1B6C0F4A43F0010313644FF080431D
:1010E80040F23F621A854FF080436422DA624FF083
:1010F800804300225A624FF080431B889BB24FF016
:10110800804243F001039BB2138000BFBD465DF8E7
:10111800047B70470038024080B500AF4FF0804331
:101128009B899BB24FF0804243F001039BB29381AD
:101138001C20FFF7B1FF00BF80BD80B500AF00F0F5
:101148006BF900BF80BD000080B400AF534B1B6B30
:10115800524A43F001031363514B1B68504A23F46E
:10116800806313604E4B1B684D4A43F40063136061
:101178004B4B1B684A4A23F480531360484B1B6847
:10118800474A43F400531360454B1B68444A23F411
:1011980080431360424B1B68414A43F40043136089
:1011A8003F4B1B6A3E4A43F0AA4343F4A003136231
:1011B8003B4B1B683A4A23F400231360384B1B68E7
:1011C800374A43F480231360354B5B68344A23F471
:1011D80000735360314B5B6C304A43F48053536463
:1011E800304B1B889BB22F4A43F010039BB21380ED
:1011F8002C4B1B889BB22B4A43F008039BB21380ED
:10120800284B1B889BB2274A23F480639BB2138028
:10121800244B1B889BB2234A43F001039BB21380E3
:10122800204B1B889BB21F4A23F002039BB21380FA
:101238001C4B1B889BB21B4A23F400639BB2138090
:10124800184B1B889BB2174A23F080039BB213806C
:10125800144B1B889BB2134A43F480739BB21380D0
:10126800104B1B889BB20F4A43F400739BB2138048
:101278000C4B1B889BB20B4A43F004039BB21380B0
:10128800084B1B889BB2074A43F040039BB213806C
:1012980000BFBD465DF8047B704700BF00380240C0
:1012A800000002400030014080B483B000AF034624
:1012B800FB710F4B1B899BB203F00203002B10D06C
:1012C8000B4BFA7992B29A8100BF094B1B899BB2EA
:1012D80003F08003002BF8D1054B9B899BB2DBB24E
:1012E80000E0FF2318460C37BD465DF8047B7047C5
:1012F8000030014080B582B000AF0346FB71002189
:10130800802000F004F800BF0837BD4680BD80B5D6
:1013180082B000AF03460A46FB711346BB71FB79E6
:1013280063F07F03DBB21846FFF7BEFFBB791846B0
:10133800FFF7BAFF00BF0837BD4680BD80B582B051
:1013480000AF03463960FB71FB7903F07F03DBB222
:101358001846FFF7A9FF0020FFF7A6FF03461A4625
:101368003B681A7000BF0837BD4680BD80B582B0A3
:1013780000AF0023FB704FF000037B6001220921BE
:101388002448FFF709FCFB1C19460120FFF7D6FF8C
:10139800002209211F48FFF7FFFBFB785BB2002BF7
:1013A80007DAD7ED017AB6EE007A77EE877AC7EDDD
:1013B800017AFB7803F04003002B07D0D7ED017AC0
:1013C800B5EE007A77EE877AC7ED017A0122092116
:1013D8001048FFF7E1FBFB1C19460220FFF7AEFFA0
:1013E800002209210B48FFF7D7FBFB785BB207EE19
:1013F800903AF8EEE77A97ED017A77EE277AC7ED1B
:10140800017A7B6807EE903AB0EE670A0837BD4666
:1014180080BD00BF0000024080B582B000AF124B13
:101428001B68002B0BD0114B1B68002B07D1FFF753
:101438009DFF87ED010A97ED010AFFF72DFD0B4B84
:101448001B680133094A1360084B1B68084A126875
:1014580093FBF2F102FB01F29B1A044A136000BFEE
:101468000837BD4680BD00BF0000002050040020A2
:101478000400002080B400AF034B01221A6000BFB3
:10148800BD465DF8047B70470000002080B483B03F
:1014980000AF78607B68074A82FB03125211DB17A2
:1014A800D31A054A136000BF0C37BD465DF8047BAC
:1014B800704700BF1F85EB510400002080B500AFC6
:1014C800FFF79CFBFFF740FE012209210B48FFF7BD
:1014D80063FB0020FFF70EFF002209210748FFF7F2
:1014E8005BFBFFF767FDFFF7F1FDFFF715FE4FF414
:1014F800FA70FFF7CBFFFFF7BDFFFEE700000240E1
:1015080080B500AF4FF080431B8A9BB24FF08042FA
:1015180023F001039BB21382FFF70FFE00BF80BDCB
:1015280080B500AF164BD3F88830154A43F47003E2
:10153800C2F88830134B1B68124A43F0010313604A
:10154800104B00229A600F4B1B680E4A23F08473DD
:1015580023F4803313600B4B0B4A5A60094B1B680A
:10156800084A23F480231360064B0022DA6000F057
:101578000DF8034B4FF000629A6000BF80BD00BFBA
:1015880000ED00E0003802401030002480B483B041
:1015980000AF00237B6000233B60354B1B68344A57
:1015A80043F480331360324B1B6803F400333B6011
:1015B8007B6801337B603B68002B03D17B68B3F504
:1015C800A04FF0D12A4B1B6803F40033002B02D044
:1015D80001233B6001E000233B603B68012B40D1C5
:1015E800234B1B6C224A43F080531364214B1B6826
:1015F800204A43F4404313601D4B1D4A9B68936087
:101608001B4B1B4A9B689360194B9B68184A43F411
:1016180080539360164B184A5A60154B1B68144A3E
:1016280043F08073136000BF114B1B6803F0007315
:10163800002BF9D0114B40F202721A600C4B9B68D8
:101648000B4A23F003039360094B9B68084A43F055
:101658000203936000BF064B9B6803F00C03082B42
:10166800F9D100BF0C37BD465DF8047B704700BF59
:10167800003802400070004019544107003C024005
:101688000D4885460D480E490E4A002302E0D458FD
:10169800C4500433C4188C42F9D30B4A0B4C0023B2
:1016A80001E013600432A242FBD3FFF739FF00F0D8
:1016B80011F8FFF703FFFEE70000012000000020FB
:1016C800340400204C190008340400207804002059
:1016D800FEE7000070B50D4E0D4D761BB61006D016
:1016E8000024013455F8043B9847A642F9D1094E25
:1016F800094D761B00F0FEF8B61006D00024013420
:1017080055F8043B9847A642F9D170BD4019000826
:10171800401900084819000840190008931E222B98
:1017280015D80A2A10B50B4605D00C46194600F004
:1017380013F8204610BD0028F7DA2D2403F8014BD2
:1017480040420C46194600F007F8204610BD00201C
:1017580008707047FFF7E2BFF0B4DFF878C01746AB
:1017680004460E46BCE80F008AB06D460FC5BCE8BB
:101778000F000FC59CE80300BB1E45F8040B222B85
:10178800297023D8751E2846002200E01A46B4FBAB
:10179800F7F10AAB07FB114423440C4613F8283C25
:1017A80000F8013F531C0029F0D1F15452B13344E1
:1017B80013F8011D15F8010F29700134111B8C4213
:1017C8001870F5DB30460AB0F0BC70470020307066
:1017D800F9E700BF18190008024B13B1024800F0DE
:1017E80005B87047000000000118000800230146F2
:1017F8001A46184600F01EB838B50A4C0A4D641B44
:10180800A4100AD004F18043013B05EB8305013C99
:1018180055F804399847002CF9D1BDE8384000F054
:101828006FB800BF4C19000848190008704700BF7E
:10183800704700BF2DE9F8432B4D064628689846A7
:101848000F469146FFF7F2FF284B1C68D4F8483141
:10185800002B3DD05A681F2A0DDC02F1010C16BB83
:101868000232C3F804C0286843F82270FFF7E0FF8B
:101878000020BDE8F8831E4B7BB34FF4C870AFF36C
:101888000080034648B3D4F848210021C0E900216C
:101898004FF0010CC4F848010A46C0F88811C0F896
:1018A8008C11002EDCD003EB82010124C1F8889052
:1018B800D3F8880194402043022EC3F88801C1F868
:1018C8000881CDD1D3F88C110C43C3F88C41C7E7FC
:1018D80004F5A673C4F84831BCE72868FFF7A8FFE9
:1018E8004FF0FF30C5E700BF30040020141900088E
:1018F80000000000F8B500BFF8BC08BC9E46704761
:0C190800F8B500BFF8BC08BC9E46704754
:1019140008000020303132333435363738396162CB
:10192400636465666768696A6B6C6D6E6F7071720B
:0C193400737475767778797A00000000F3
:08194000E1170008BD010008D9
:0419480099010008F9
:10194C00010000000100000000000000F402002073
:10195C005C030020C4030020000000000000000015
:10196C00000000000000000000000000000000006B
:10197C00000000000000000000000000000000005B
:10198C00000000000000000000000000000000004B
:10199C00000000000000000000000000000000003B
:1019AC00000000000000000000000000000000002B
:1019BC00000000000000000000000000000000001B
:1019CC00000000000000000000000000000000000B
:1019DC0000000000000000000000000000000000FB
:1019EC0000000000000000000000000000000000EB
:1019FC0001000000000000000E33CDAB34126DE688
:101A0C00ECDE05000B0000000000000000000000F0
:101A1C0000000000000000000000000000000000BA
:101A2C0000000000000000000000000000000000AA
:101A3C00000000000000000000000000000000009A
:101A4C00000000000000000000000000000000008A
:041D7C0054040020EB
:040000050800168950
:00000001FF
